{
  "_format": "hh-sol-artifact-1",
  "contractName": "Counter",
  "sourceName": "contracts/Counter.sol",
  "abi": [
    {
      "inputs": [],
      "stateMutability": "payable",
      "type": "constructor"
    },
    {
      "anonymous": false,
      "inputs": [
        {
          "indexed": false,
          "internalType": "uint256",
          "name": "number",
          "type": "uint256"
        }
      ],
      "name": "CountedTo",
      "type": "event"
    },
    {
      "anonymous": false,
      "inputs": [
        {
          "indexed": false,
          "internalType": "address",
          "name": "doner",
          "type": "address"
        },
        {
          "indexed": false,
          "internalType": "uint32",
          "name": "quantity",
          "type": "uint32"
        },
        {
          "indexed": false,
          "internalType": "uint256",
          "name": "timestamp",
          "type": "uint256"
        }
      ],
      "name": "NewDonation",
      "type": "event"
    },
    {
      "anonymous": false,
      "inputs": [
        {
          "indexed": false,
          "internalType": "string",
          "name": "name",
          "type": "string"
        },
        {
          "indexed": false,
          "internalType": "address",
          "name": "integrationAccount",
          "type": "address"
        },
        {
          "indexed": false,
          "internalType": "uint32",
          "name": "totalDonated",
          "type": "uint32"
        },
        {
          "indexed": false,
          "internalType": "uint256",
          "name": "balance",
          "type": "uint256"
        }
      ],
      "name": "NewIntegration",
      "type": "event"
    },
    {
      "anonymous": false,
      "inputs": [
        {
          "indexed": false,
          "internalType": "string",
          "name": "name",
          "type": "string"
        },
        {
          "indexed": false,
          "internalType": "address",
          "name": "ngoAccount",
          "type": "address"
        },
        {
          "indexed": false,
          "internalType": "uint32",
          "name": "totalReceived",
          "type": "uint32"
        }
      ],
      "name": "NewNgo",
      "type": "event"
    },
    {
      "anonymous": false,
      "inputs": [
        {
          "indexed": false,
          "internalType": "uint256",
          "name": "balance",
          "type": "uint256"
        },
        {
          "indexed": false,
          "internalType": "uint256",
          "name": "totalDonated",
          "type": "uint256"
        }
      ],
      "name": "NewUser",
      "type": "event"
    },
    {
      "inputs": [
        {
          "internalType": "string",
          "name": "_name",
          "type": "string"
        },
        {
          "internalType": "address",
          "name": "_integrationAccount",
          "type": "address"
        }
      ],
      "name": "_createIntegration",
      "outputs": [],
      "stateMutability": "nonpayable",
      "type": "function"
    },
    {
      "inputs": [
        {
          "internalType": "string",
          "name": "_name",
          "type": "string"
        },
        {
          "internalType": "address",
          "name": "_ngoAccount",
          "type": "address"
        }
      ],
      "name": "_createNgo",
      "outputs": [],
      "stateMutability": "nonpayable",
      "type": "function"
    },
    {
      "inputs": [
        {
          "internalType": "uint256",
          "name": "_NgoId",
          "type": "uint256"
        }
      ],
      "name": "addNgoToWhitelist",
      "outputs": [],
      "stateMutability": "nonpayable",
      "type": "function"
    },
    {
      "inputs": [
        {
          "internalType": "address",
          "name": "",
          "type": "address"
        }
      ],
      "name": "adressToNgo",
      "outputs": [
        {
          "internalType": "string",
          "name": "name",
          "type": "string"
        },
        {
          "internalType": "address",
          "name": "ngoAccount",
          "type": "address"
        },
        {
          "internalType": "uint256",
          "name": "totalReceived",
          "type": "uint256"
        },
        {
          "internalType": "bool",
          "name": "isOnWhitelist",
          "type": "bool"
        }
      ],
      "stateMutability": "view",
      "type": "function"
    },
    {
      "inputs": [],
      "name": "countDown",
      "outputs": [
        {
          "internalType": "uint256",
          "name": "",
          "type": "uint256"
        }
      ],
      "stateMutability": "nonpayable",
      "type": "function"
    },
    {
      "inputs": [],
      "name": "countUp",
      "outputs": [
        {
          "internalType": "uint256",
          "name": "",
          "type": "uint256"
        }
      ],
      "stateMutability": "nonpayable",
      "type": "function"
    },
    {
      "inputs": [
        {
          "internalType": "uint256",
          "name": "_amount",
          "type": "uint256"
        },
        {
          "components": [
            {
              "internalType": "string",
              "name": "name",
              "type": "string"
            },
            {
              "internalType": "address",
              "name": "ngoAccount",
              "type": "address"
            },
            {
              "internalType": "uint256",
              "name": "totalReceived",
              "type": "uint256"
            },
            {
              "internalType": "bool",
              "name": "isOnWhitelist",
              "type": "bool"
            }
          ],
          "internalType": "struct Counter.Ngo",
          "name": "_ngo",
          "type": "tuple"
        }
      ],
      "name": "deposit",
      "outputs": [],
      "stateMutability": "payable",
      "type": "function"
    },
    {
      "inputs": [
        {
          "internalType": "uint32",
          "name": "_quantity",
          "type": "uint32"
        },
        {
          "components": [
            {
              "internalType": "string",
              "name": "name",
              "type": "string"
            },
            {
              "internalType": "address",
              "name": "ngoAccount",
              "type": "address"
            },
            {
              "internalType": "uint256",
              "name": "totalReceived",
              "type": "uint256"
            },
            {
              "internalType": "bool",
              "name": "isOnWhitelist",
              "type": "bool"
            }
          ],
          "internalType": "struct Counter.Ngo",
          "name": "_ngo",
          "type": "tuple"
        }
      ],
      "name": "donate",
      "outputs": [],
      "stateMutability": "nonpayable",
      "type": "function"
    },
    {
      "inputs": [],
      "name": "donationPoolBalance",
      "outputs": [
        {
          "internalType": "uint256",
          "name": "",
          "type": "uint256"
        }
      ],
      "stateMutability": "view",
      "type": "function"
    },
    {
      "inputs": [
        {
          "internalType": "uint256",
          "name": "",
          "type": "uint256"
        }
      ],
      "name": "donations",
      "outputs": [
        {
          "internalType": "address",
          "name": "doner",
          "type": "address"
        },
        {
          "internalType": "uint32",
          "name": "quantity",
          "type": "uint32"
        },
        {
          "internalType": "uint256",
          "name": "timestamp",
          "type": "uint256"
        }
      ],
      "stateMutability": "view",
      "type": "function"
    },
    {
      "inputs": [],
      "name": "getAllDonations",
      "outputs": [
        {
          "components": [
            {
              "internalType": "address",
              "name": "doner",
              "type": "address"
            },
            {
              "internalType": "uint32",
              "name": "quantity",
              "type": "uint32"
            },
            {
              "internalType": "uint256",
              "name": "timestamp",
              "type": "uint256"
            }
          ],
          "internalType": "struct Counter.Donation[]",
          "name": "",
          "type": "tuple[]"
        }
      ],
      "stateMutability": "view",
      "type": "function"
    },
    {
      "inputs": [],
      "name": "getAllIntegrations",
      "outputs": [
        {
          "components": [
            {
              "internalType": "string",
              "name": "name",
              "type": "string"
            },
            {
              "internalType": "address",
              "name": "integrationAccount",
              "type": "address"
            },
            {
              "internalType": "uint256",
              "name": "totalDonated",
              "type": "uint256"
            },
            {
              "internalType": "uint256",
              "name": "balance",
              "type": "uint256"
            }
          ],
          "internalType": "struct Counter.Integration[]",
          "name": "",
          "type": "tuple[]"
        }
      ],
      "stateMutability": "view",
      "type": "function"
    },
    {
      "inputs": [],
      "name": "getAllNgos",
      "outputs": [
        {
          "components": [
            {
              "internalType": "string",
              "name": "name",
              "type": "string"
            },
            {
              "internalType": "address",
              "name": "ngoAccount",
              "type": "address"
            },
            {
              "internalType": "uint256",
              "name": "totalReceived",
              "type": "uint256"
            },
            {
              "internalType": "bool",
              "name": "isOnWhitelist",
              "type": "bool"
            }
          ],
          "internalType": "struct Counter.Ngo[]",
          "name": "",
          "type": "tuple[]"
        }
      ],
      "stateMutability": "view",
      "type": "function"
    },
    {
      "inputs": [],
      "name": "getCount",
      "outputs": [
        {
          "internalType": "uint256",
          "name": "",
          "type": "uint256"
        }
      ],
      "stateMutability": "view",
      "type": "function"
    },
    {
      "inputs": [],
      "name": "getDonationPoolBalance",
      "outputs": [
        {
          "internalType": "uint256",
          "name": "",
          "type": "uint256"
        }
      ],
      "stateMutability": "view",
      "type": "function"
    },
    {
      "inputs": [
        {
          "components": [
            {
              "internalType": "string",
              "name": "name",
              "type": "string"
            },
            {
              "internalType": "address",
              "name": "ngoAccount",
              "type": "address"
            },
            {
              "internalType": "uint256",
              "name": "totalReceived",
              "type": "uint256"
            },
            {
              "internalType": "bool",
              "name": "isOnWhitelist",
              "type": "bool"
            }
          ],
          "internalType": "struct Counter.Ngo",
          "name": "_ngo",
          "type": "tuple"
        }
      ],
      "name": "getNgoTotalReceived",
      "outputs": [
        {
          "internalType": "uint256",
          "name": "",
          "type": "uint256"
        }
      ],
      "stateMutability": "pure",
      "type": "function"
    },
    {
      "inputs": [
        {
          "components": [
            {
              "internalType": "uint256",
              "name": "balance",
              "type": "uint256"
            },
            {
              "internalType": "uint256",
              "name": "totalDonated",
              "type": "uint256"
            }
          ],
          "internalType": "struct Counter.User",
          "name": "_user",
          "type": "tuple"
        }
      ],
      "name": "getUserTotalDonated",
      "outputs": [
        {
          "internalType": "uint256",
          "name": "",
          "type": "uint256"
        }
      ],
      "stateMutability": "pure",
      "type": "function"
    },
    {
      "inputs": [
        {
          "components": [
            {
              "internalType": "string",
              "name": "name",
              "type": "string"
            },
            {
              "internalType": "address",
              "name": "integrationAccount",
              "type": "address"
            },
            {
              "internalType": "uint256",
              "name": "totalDonated",
              "type": "uint256"
            },
            {
              "internalType": "uint256",
              "name": "balance",
              "type": "uint256"
            }
          ],
          "internalType": "struct Counter.Integration",
          "name": "_integration",
          "type": "tuple"
        },
        {
          "internalType": "uint256",
          "name": "_amount",
          "type": "uint256"
        }
      ],
      "name": "integrationDistribution",
      "outputs": [],
      "stateMutability": "nonpayable",
      "type": "function"
    },
    {
      "inputs": [
        {
          "internalType": "uint256",
          "name": "",
          "type": "uint256"
        }
      ],
      "name": "integrations",
      "outputs": [
        {
          "internalType": "string",
          "name": "name",
          "type": "string"
        },
        {
          "internalType": "address",
          "name": "integrationAccount",
          "type": "address"
        },
        {
          "internalType": "uint256",
          "name": "totalDonated",
          "type": "uint256"
        },
        {
          "internalType": "uint256",
          "name": "balance",
          "type": "uint256"
        }
      ],
      "stateMutability": "view",
      "type": "function"
    },
    {
      "inputs": [
        {
          "internalType": "address",
          "name": "",
          "type": "address"
        }
      ],
      "name": "lastDonatedAt",
      "outputs": [
        {
          "internalType": "uint256",
          "name": "",
          "type": "uint256"
        }
      ],
      "stateMutability": "view",
      "type": "function"
    },
    {
      "inputs": [
        {
          "internalType": "uint256",
          "name": "",
          "type": "uint256"
        }
      ],
      "name": "ngos",
      "outputs": [
        {
          "internalType": "string",
          "name": "name",
          "type": "string"
        },
        {
          "internalType": "address",
          "name": "ngoAccount",
          "type": "address"
        },
        {
          "internalType": "uint256",
          "name": "totalReceived",
          "type": "uint256"
        },
        {
          "internalType": "bool",
          "name": "isOnWhitelist",
          "type": "bool"
        }
      ],
      "stateMutability": "view",
      "type": "function"
    },
    {
      "inputs": [
        {
          "internalType": "uint256",
          "name": "",
          "type": "uint256"
        }
      ],
      "name": "ngosWhitelist",
      "outputs": [
        {
          "internalType": "string",
          "name": "name",
          "type": "string"
        },
        {
          "internalType": "address",
          "name": "ngoAccount",
          "type": "address"
        },
        {
          "internalType": "uint256",
          "name": "totalReceived",
          "type": "uint256"
        },
        {
          "internalType": "bool",
          "name": "isOnWhitelist",
          "type": "bool"
        }
      ],
      "stateMutability": "view",
      "type": "function"
    },
    {
      "inputs": [
        {
          "internalType": "uint256",
          "name": "_NgoId",
          "type": "uint256"
        }
      ],
      "name": "removeNgoFromWhitelist",
      "outputs": [],
      "stateMutability": "nonpayable",
      "type": "function"
    },
    {
      "inputs": [],
      "name": "ribonTotalDonated",
      "outputs": [
        {
          "internalType": "uint256",
          "name": "",
          "type": "uint256"
        }
      ],
      "stateMutability": "view",
      "type": "function"
    },
    {
      "inputs": [
        {
          "internalType": "uint256",
          "name": "",
          "type": "uint256"
        }
      ],
      "name": "users",
      "outputs": [
        {
          "internalType": "uint256",
          "name": "balance",
          "type": "uint256"
        },
        {
          "internalType": "uint256",
          "name": "totalDonated",
          "type": "uint256"
        }
      ],
      "stateMutability": "view",
      "type": "function"
    }
  ],
  "bytecode": "0x608060405260008055620000536040518060400160405280601981526020017f57652068617665206265656e20636f6e737472756374656421000000000000008152506200005960201b620016d51760201c565b6200018b565b6200015f816040516024018080602001828103825283818151815260200191508051906020019080838360005b83811015620000a357808201518184015260208101905062000086565b50505050905090810190601f168015620000d15780820380516001836020036101000a031916815260200191505b50925050506040516020818303038152906040527f41304fac000000000000000000000000000000000000000000000000000000007bffffffffffffffffffffffffffffffffffffffffffffffffffffffff19166020820180517bffffffffffffffffffffffffffffffffffffffffffffffffffffffff83818316178352505050506200016260201b60201c565b50565b60008151905060006a636f6e736f6c652e6c6f679050602083016000808483855afa5050505050565b612964806200019b6000396000f3fe6080604052600436106101665760003560e01c806365990bbd116100d1578063a52c4b5c1161008a578063c4cb9b9411610064578063c4cb9b941461054f578063e12df64b1461058c578063f8626af8146105b5578063fa8266f2146105f457610166565b8063a52c4b5c146104d0578063a87d942c146104fb578063c48dccc11461052657610166565b806365990bbd1461039457806368f50803146103d45780636c693d7f146103ff5780637195bb531461042a578063790bde32146104535780637c3ce0bf1461049357610166565b806338a59a071161012357806338a59a071461028e5780634e81ae00146102b9578063586302f9146102d55780635cf81c45146103155780635fcbd5b61461033e57806365296d0c1461036957610166565b80630bd8599e1461016b5780630eaf7f141461019657806311877921146101c15780632304dec0146101ea5780632601738714610213578063365b98b214610250575b600080fd5b34801561017757600080fd5b50610180610634565b60405161018d9190612643565b60405180910390f35b3480156101a257600080fd5b506101ab61070e565b6040516101b89190612643565b60405180910390f35b3480156101cd57600080fd5b506101e860048036038101906101e39190611d68565b610714565b005b3480156101f657600080fd5b50610211600480360381019061020c9190611d14565b61077b565b005b34801561021f57600080fd5b5061023a60048036038101906102359190611dbc565b61089b565b6040516102479190612643565b60405180910390f35b34801561025c57600080fd5b5061027760048036038101906102729190611e26565b6108a9565b60405161028592919061265e565b60405180910390f35b34801561029a57600080fd5b506102a36108dd565b6040516102b0919061243b565b60405180910390f35b6102d360048036038101906102ce9190611e4f565b6109c2565b005b3480156102e157600080fd5b506102fc60048036038101906102f79190611e26565b610ade565b60405161030c949392919061252b565b60405180910390f35b34801561032157600080fd5b5061033c60048036038101906103379190611e26565b610be3565b005b34801561034a57600080fd5b50610353610c23565b6040516103609190612643565b60405180910390f35b34801561037557600080fd5b5061037e610cfd565b60405161038b9190612643565b60405180910390f35b3480156103a057600080fd5b506103bb60048036038101906103b69190611ceb565b610d07565b6040516103cb949392919061252b565b60405180910390f35b3480156103e057600080fd5b506103e9610dfc565b6040516103f6919061247f565b60405180910390f35b34801561040b57600080fd5b50610414610f78565b604051610421919061245d565b60405180910390f35b34801561043657600080fd5b50610451600480360381019061044c9190611d14565b6110e3565b005b34801561045f57600080fd5b5061047a60048036038101906104759190611e26565b611219565b60405161048a9493929190612577565b60405180910390f35b34801561049f57600080fd5b506104ba60048036038101906104b59190611ceb565b611311565b6040516104c79190612643565b60405180910390f35b3480156104dc57600080fd5b506104e5611329565b6040516104f29190612643565b60405180910390f35b34801561050757600080fd5b5061051061132f565b60405161051d9190612643565b60405180910390f35b34801561053257600080fd5b5061054d60048036038101906105489190611ea3565b611338565b005b34801561055b57600080fd5b5061057660048036038101906105719190611dfd565b611518565b6040516105839190612643565b60405180910390f35b34801561059857600080fd5b506105b360048036038101906105ae9190611e26565b611526565b005b3480156105c157600080fd5b506105dc60048036038101906105d79190611e26565b611566565b6040516105eb93929190612404565b60405180910390f35b34801561060057600080fd5b5061061b60048036038101906106169190611e26565b6115d0565b60405161062b949392919061252b565b60405180910390f35b60006106776040518060400160405280601081526020017f636f756e7455703a20636f756e74203d000000000000000000000000000000008152506000546117d3565b6000600160005401905060005481116106c5576040517f08c379a00000000000000000000000000000000000000000000000000000000081526004016106bc90612603565b60405180910390fd5b806000819055507fa501f5a8ef1a812bff54fb3642cfaec066c351af1716c48a7bdd05e0bb631e676000546040516106fd9190612643565b60405180910390a160005491505090565b60025481565b60008111610757576040517f08c379a000000000000000000000000000000000000000000000000000000000815260040161074e90612623565b60405180910390fd5b80600160008282540392505081905550808260600181815101915081815250505050565b600760405180608001604052808481526020018373ffffffffffffffffffffffffffffffffffffffff168152602001600081526020016000815250908060018154018082558091505060019003906000526020600020906004020160009091909190915060008201518160000190805190602001906107fb929190611a20565b5060208201518160010160006101000a81548173ffffffffffffffffffffffffffffffffffffffff021916908373ffffffffffffffffffffffffffffffffffffffff160217905550604082015181600201556060820151816003015550507f7e91a3c69f4ff507fe184b0e9305fda8eba882dc540bf6b381fa00a77a3f81ee823360008060405161088f94939291906124df565b60405180910390a15050565b600081604001519050919050565b600381815481106108b957600080fd5b90600052602060002090600202016000915090508060000154908060010154905082565b60606004805480602002602001604051908101604052809291908181526020016000905b828210156109b957838290600052602060002090600202016040518060600160405290816000820160009054906101000a900473ffffffffffffffffffffffffffffffffffffffff1673ffffffffffffffffffffffffffffffffffffffff1673ffffffffffffffffffffffffffffffffffffffff1681526020016000820160149054906101000a900463ffffffff1663ffffffff1663ffffffff16815260200160018201548152505081526020019060010190610901565b50505050905090565b60008211610a05576040517f08c379a00000000000000000000000000000000000000000000000000000000081526004016109fc90612623565b60405180910390fd5b81600154016001819055506000816020015190506000808273ffffffffffffffffffffffffffffffffffffffff1634604051610a40906123b8565b60006040518083038185875af1925050503d8060008114610a7d576040519150601f19603f3d011682016040523d82523d6000602084013e610a82565b606091505b509150915081610ac7576040517f08c379a0000000000000000000000000000000000000000000000000000000008152600401610abe906125c3565b60405180910390fd5b848460400181815101915081815250505050505050565b60068181548110610aee57600080fd5b9060005260206000209060040201600091509050806000018054600181600116156101000203166002900480601f016020809104026020016040519081016040528092919081815260200182805460018160011615610100020316600290048015610b9a5780601f10610b6f57610100808354040283529160200191610b9a565b820191906000526020600020905b815481529060010190602001808311610b7d57829003601f168201915b5050505050908060010160009054906101000a900473ffffffffffffffffffffffffffffffffffffffff16908060020154908060030160009054906101000a900460ff16905084565b600060058281548110610bf257fe5b9060005260206000209060040201905060018160030160006101000a81548160ff0219169083151502179055505050565b6000610c666040518060400160405280601281526020017f636f756e74446f776e3a20636f756e74203d00000000000000000000000000008152506000546117d3565b600060016000540390506000548110610cb4576040517f08c379a0000000000000000000000000000000000000000000000000000000008152600401610cab906125e3565b60405180910390fd5b806000819055507fa501f5a8ef1a812bff54fb3642cfaec066c351af1716c48a7bdd05e0bb631e67600054604051610cec9190612643565b60405180910390a160005491505090565b6000600154905090565b6009602052806000526040600020600091509050806000018054600181600116156101000203166002900480601f016020809104026020016040519081016040528092919081815260200182805460018160011615610100020316600290048015610db35780601f10610d8857610100808354040283529160200191610db3565b820191906000526020600020905b815481529060010190602001808311610d9657829003601f168201915b5050505050908060010160009054906101000a900473ffffffffffffffffffffffffffffffffffffffff16908060020154908060030160009054906101000a900460ff16905084565b60606005805480602002602001604051908101604052809291908181526020016000905b82821015610f6f5783829060005260206000209060040201604051806080016040529081600082018054600181600116156101000203166002900480601f016020809104026020016040519081016040528092919081815260200182805460018160011615610100020316600290048015610edc5780601f10610eb157610100808354040283529160200191610edc565b820191906000526020600020905b815481529060010190602001808311610ebf57829003601f168201915b505050505081526020016001820160009054906101000a900473ffffffffffffffffffffffffffffffffffffffff1673ffffffffffffffffffffffffffffffffffffffff1673ffffffffffffffffffffffffffffffffffffffff168152602001600282015481526020016003820160009054906101000a900460ff16151515158152505081526020019060010190610e20565b50505050905090565b60606007805480602002602001604051908101604052809291908181526020016000905b828210156110da5783829060005260206000209060040201604051806080016040529081600082018054600181600116156101000203166002900480601f0160208091040260200160405190810160405280929190818152602001828054600181600116156101000203166002900480156110585780601f1061102d57610100808354040283529160200191611058565b820191906000526020600020905b81548152906001019060200180831161103b57829003601f168201915b505050505081526020016001820160009054906101000a900473ffffffffffffffffffffffffffffffffffffffff1673ffffffffffffffffffffffffffffffffffffffff1673ffffffffffffffffffffffffffffffffffffffff1681526020016002820154815260200160038201548152505081526020019060010190610f9c565b50505050905090565b600560405180608001604052808481526020018373ffffffffffffffffffffffffffffffffffffffff168152602001600081526020016000151581525090806001815401808255809150506001900390600052602060002090600402016000909190919091506000820151816000019080519060200190611165929190611a20565b5060208201518160010160006101000a81548173ffffffffffffffffffffffffffffffffffffffff021916908373ffffffffffffffffffffffffffffffffffffffff1602179055506040820151816002015560608201518160030160006101000a81548160ff02191690831515021790555050507fc19c5b38263ad49a9cba5fe959688dafc407c0f9d748757aacc14bb699625ad78233600060405161120d939291906124a1565b60405180910390a15050565b6007818154811061122957600080fd5b9060005260206000209060040201600091509050806000018054600181600116156101000203166002900480601f0160208091040260200160405190810160405280929190818152602001828054600181600116156101000203166002900480156112d55780601f106112aa576101008083540402835291602001916112d5565b820191906000526020600020905b8154815290600101906020018083116112b857829003601f168201915b5050505050908060010160009054906101000a900473ffffffffffffffffffffffffffffffffffffffff16908060020154908060030154905084565b60086020528060005260406000206000915090505481565b60015481565b60008054905090565b42600860003373ffffffffffffffffffffffffffffffffffffffff1673ffffffffffffffffffffffffffffffffffffffff168152602001908152602001600020819055508163ffffffff166002600082825401925050819055506113d16040518060400160405280600f81526020017f25732068617320646f6e61746564210000000000000000000000000000000000815250336118da565b600460405180606001604052803373ffffffffffffffffffffffffffffffffffffffff1681526020018463ffffffff16815260200142815250908060018154018082558091505060019003906000526020600020906002020160009091909190915060008201518160000160006101000a81548173ffffffffffffffffffffffffffffffffffffffff021916908373ffffffffffffffffffffffffffffffffffffffff16021790555060208201518160000160146101000a81548163ffffffff021916908363ffffffff1602179055506040820151816001015550508163ffffffff166001600082825401925050819055508163ffffffff168160400181815101915081815250507f07bd45509b274e16c538712d7cf14ab884bc78c1f746b21144cb8b6aaa96dc2133834260405161150c939291906123cd565b60405180910390a15050565b600081602001519050919050565b60006005828154811061153557fe5b9060005260206000209060040201905060008160030160006101000a81548160ff0219169083151502179055505050565b6004818154811061157657600080fd5b90600052602060002090600202016000915090508060000160009054906101000a900473ffffffffffffffffffffffffffffffffffffffff16908060000160149054906101000a900463ffffffff16908060010154905083565b600581815481106115e057600080fd5b9060005260206000209060040201600091509050806000018054600181600116156101000203166002900480601f01602080910402602001604051908101604052809291908181526020018280546001816001161561010002031660029004801561168c5780601f106116615761010080835404028352916020019161168c565b820191906000526020600020905b81548152906001019060200180831161166f57829003601f168201915b5050505050908060010160009054906101000a900473ffffffffffffffffffffffffffffffffffffffff16908060020154908060030160009054906101000a900460ff16905084565b6117d0816040516024018080602001828103825283818151815260200191508051906020019080838360005b8381101561171c578082015181840152602081019050611701565b50505050905090810190601f1680156117495780820380516001836020036101000a031916815260200191505b50925050506040516020818303038152906040527f41304fac000000000000000000000000000000000000000000000000000000007bffffffffffffffffffffffffffffffffffffffffffffffffffffffff19166020820180517bffffffffffffffffffffffffffffffffffffffffffffffffffffffff83818316178352505050506119f7565b50565b6118d682826040516024018080602001838152602001828103825284818151815260200191508051906020019080838360005b83811015611821578082015181840152602081019050611806565b50505050905090810190601f16801561184e5780820380516001836020036101000a031916815260200191505b5093505050506040516020818303038152906040527f9710a9d0000000000000000000000000000000000000000000000000000000007bffffffffffffffffffffffffffffffffffffffffffffffffffffffff19166020820180517bffffffffffffffffffffffffffffffffffffffffffffffffffffffff83818316178352505050506119f7565b5050565b6119f3828260405160240180806020018373ffffffffffffffffffffffffffffffffffffffff168152602001828103825284818151815260200191508051906020019080838360005b8381101561193e578082015181840152602081019050611923565b50505050905090810190601f16801561196b5780820380516001836020036101000a031916815260200191505b5093505050506040516020818303038152906040527f319af333000000000000000000000000000000000000000000000000000000007bffffffffffffffffffffffffffffffffffffffffffffffffffffffff19166020820180517bffffffffffffffffffffffffffffffffffffffffffffffffffffffff83818316178352505050506119f7565b5050565b60008151905060006a636f6e736f6c652e6c6f679050602083016000808483855afa5050505050565b828054600181600116156101000203166002900490600052602060002090601f016020900481019282611a565760008555611a9d565b82601f10611a6f57805160ff1916838001178555611a9d565b82800160010185558215611a9d579182015b82811115611a9c578251825591602001919060010190611a81565b5b509050611aaa9190611aae565b5090565b5b80821115611ac7576000816000905550600101611aaf565b5090565b6000611ade611ad9846126b8565b612687565b905082815260208101848484011115611af657600080fd5b611b0184828561287d565b509392505050565b600081359050611b18816128d2565b92915050565b600081359050611b2d816128e9565b92915050565b600082601f830112611b4457600080fd5b8135611b54848260208601611acb565b91505092915050565b600060808284031215611b6f57600080fd5b611b796080612687565b9050600082013567ffffffffffffffff811115611b9557600080fd5b611ba184828501611b33565b6000830152506020611bb584828501611b09565b6020830152506040611bc984828501611cc1565b6040830152506060611bdd84828501611cc1565b60608301525092915050565b600060808284031215611bfb57600080fd5b611c056080612687565b9050600082013567ffffffffffffffff811115611c2157600080fd5b611c2d84828501611b33565b6000830152506020611c4184828501611b09565b6020830152506040611c5584828501611cc1565b6040830152506060611c6984828501611b1e565b60608301525092915050565b600060408284031215611c8757600080fd5b611c916040612687565b90506000611ca184828501611cc1565b6000830152506020611cb584828501611cc1565b60208301525092915050565b600081359050611cd081612900565b92915050565b600081359050611ce581612917565b92915050565b600060208284031215611cfd57600080fd5b6000611d0b84828501611b09565b91505092915050565b60008060408385031215611d2757600080fd5b600083013567ffffffffffffffff811115611d4157600080fd5b611d4d85828601611b33565b9250506020611d5e85828601611b09565b9150509250929050565b60008060408385031215611d7b57600080fd5b600083013567ffffffffffffffff811115611d9557600080fd5b611da185828601611b5d565b9250506020611db285828601611cc1565b9150509250929050565b600060208284031215611dce57600080fd5b600082013567ffffffffffffffff811115611de857600080fd5b611df484828501611be9565b91505092915050565b600060408284031215611e0f57600080fd5b6000611e1d84828501611c75565b91505092915050565b600060208284031215611e3857600080fd5b6000611e4684828501611cc1565b91505092915050565b60008060408385031215611e6257600080fd5b6000611e7085828601611cc1565b925050602083013567ffffffffffffffff811115611e8d57600080fd5b611e9985828601611be9565b9150509250929050565b60008060408385031215611eb657600080fd5b6000611ec485828601611cd6565b925050602083013567ffffffffffffffff811115611ee157600080fd5b611eed85828601611be9565b9150509250929050565b6000611f038383612274565b60608301905092915050565b6000611f1b83836122b6565b905092915050565b6000611f2f8383612319565b905092915050565b611f4081612823565b82525050565b611f4f816127cb565b82525050565b611f5e816127cb565b82525050565b6000611f6f82612718565b611f79818561276b565b9350611f84836126e8565b8060005b83811015611fb5578151611f9c8882611ef7565b9750611fa783612744565b925050600181019050611f88565b5085935050505092915050565b6000611fcd82612723565b611fd7818561277c565b935083602082028501611fe9856126f8565b8060005b8581101561202557848403895281516120068582611f0f565b945061201183612751565b925060208a01995050600181019050611fed565b50829750879550505050505092915050565b60006120428261272e565b61204c818561278d565b93508360208202850161205e85612708565b8060005b8581101561209a578484038952815161207b8582611f23565b94506120868361275e565b925060208a01995050600181019050612062565b50829750879550505050505092915050565b6120b5816127dd565b82525050565b6120c4816127dd565b82525050565b6120d381612835565b82525050565b6120e281612847565b82525050565b60006120f382612739565b6120fd81856127a9565b935061210d81856020860161288c565b612116816128c1565b840191505092915050565b600061212c82612739565b61213681856127ba565b935061214681856020860161288c565b61214f816128c1565b840191505092915050565b60006121676014836127ba565b91507f4661696c656420746f2073656e642045746865720000000000000000000000006000830152602082019050919050565b60006121a76011836127ba565b91507f55696e7432353620756e646572666c6f770000000000000000000000000000006000830152602082019050919050565b60006121e76010836127ba565b91507f55696e74323536206f766572666c6f77000000000000000000000000000000006000830152602082019050919050565b600061222760008361279e565b9150600082019050919050565b6000612241601e836127ba565b91507f416d6f756e742073686f756c6420626520626967676572207468616e203000006000830152602082019050919050565b60608201600082015161228a6000850182611f46565b50602082015161229d602085018261239a565b5060408201516122b0604085018261237c565b50505050565b600060808301600083015184820360008601526122d382826120e8565b91505060208301516122e86020860182611f46565b5060408301516122fb604086018261237c565b50606083015161230e606086018261237c565b508091505092915050565b6000608083016000830151848203600086015261233682826120e8565b915050602083015161234b6020860182611f46565b50604083015161235e604086018261237c565b50606083015161237160608601826120ac565b508091505092915050565b61238581612809565b82525050565b61239481612809565b82525050565b6123a381612813565b82525050565b6123b281612813565b82525050565b60006123c38261221a565b9150819050919050565b60006060820190506123e26000830186611f37565b6123ef60208301856123a9565b6123fc604083018461238b565b949350505050565b60006060820190506124196000830186611f55565b61242660208301856123a9565b612433604083018461238b565b949350505050565b600060208201905081810360008301526124558184611f64565b905092915050565b600060208201905081810360008301526124778184611fc2565b905092915050565b600060208201905081810360008301526124998184612037565b905092915050565b600060608201905081810360008301526124bb8186612121565b90506124ca6020830185611f37565b6124d760408301846120d9565b949350505050565b600060808201905081810360008301526124f98187612121565b90506125086020830186611f37565b61251560408301856120d9565b61252260608301846120ca565b95945050505050565b600060808201905081810360008301526125458187612121565b90506125546020830186611f55565b612561604083018561238b565b61256e60608301846120bb565b95945050505050565b600060808201905081810360008301526125918187612121565b90506125a06020830186611f55565b6125ad604083018561238b565b6125ba606083018461238b565b95945050505050565b600060208201905081810360008301526125dc8161215a565b9050919050565b600060208201905081810360008301526125fc8161219a565b9050919050565b6000602082019050818103600083015261261c816121da565b9050919050565b6000602082019050818103600083015261263c81612234565b9050919050565b6000602082019050612658600083018461238b565b92915050565b6000604082019050612673600083018561238b565b612680602083018461238b565b9392505050565b6000604051905081810181811067ffffffffffffffff821117156126ae576126ad6128bf565b5b8060405250919050565b600067ffffffffffffffff8211156126d3576126d26128bf565b5b601f19601f8301169050602081019050919050565b6000819050602082019050919050565b6000819050602082019050919050565b6000819050602082019050919050565b600081519050919050565b600081519050919050565b600081519050919050565b600081519050919050565b6000602082019050919050565b6000602082019050919050565b6000602082019050919050565b600082825260208201905092915050565b600082825260208201905092915050565b600082825260208201905092915050565b600081905092915050565b600082825260208201905092915050565b600082825260208201905092915050565b60006127d6826127e9565b9050919050565b60008115159050919050565b600073ffffffffffffffffffffffffffffffffffffffff82169050919050565b6000819050919050565b600063ffffffff82169050919050565b600061282e82612859565b9050919050565b600061284082612809565b9050919050565b600061285282612813565b9050919050565b60006128648261286b565b9050919050565b6000612876826127e9565b9050919050565b82818337600083830152505050565b60005b838110156128aa57808201518184015260208101905061288f565b838111156128b9576000848401525b50505050565bfe5b6000601f19601f8301169050919050565b6128db816127cb565b81146128e657600080fd5b50565b6128f2816127dd565b81146128fd57600080fd5b50565b61290981612809565b811461291457600080fd5b50565b61292081612813565b811461292b57600080fd5b5056fea26469706673582212201b831fa375a37fd5da2d1e36bab0869c070d2a1e0422b8acf0bb0ec43aecbcfb64736f6c63430007060033",
  "linkReferences": {},
  "deployedLinkReferences": {}
}