{
  "_format": "hh-sol-artifact-1",
  "contractName": "Greeter",
  "sourceName": "contracts/Greeter.sol",
  "abi": [
    {
      "inputs": [
        {
          "internalType": "string",
          "name": "_greeting",
          "type": "string"
        }
      ],
      "stateMutability": "nonpayable",
      "type": "constructor"
    },
    {
      "inputs": [],
      "name": "greet",
      "outputs": [
        {
          "internalType": "string",
          "name": "",
          "type": "string"
        }
      ],
      "stateMutability": "view",
      "type": "function"
    },
    {
      "inputs": [],
      "name": "greeting",
      "outputs": [
        {
          "internalType": "string",
          "name": "",
          "type": "string"
        }
      ],
      "stateMutability": "view",
      "type": "function"
    },
    {
      "inputs": [
        {
          "internalType": "string",
          "name": "_greeting",
          "type": "string"
        }
      ],
      "name": "setGreeting",
      "outputs": [],
      "stateMutability": "nonpayable",
      "type": "function"
    }
  ],
  "bytecode": "0x60806040523480156200001157600080fd5b5060405162000a5038038062000a5083398101604081905262000034916200026c565b6200006460405180606001604052806022815260200162000a2e60229139826200008160201b620002691760201c565b805162000079906000906020840190620001c0565b50506200032b565b6200019b8282604051602401808060200180602001838103835285818151815260200191508051906020019080838360005b83811015620000cd578181015183820152602001620000b3565b50505050905090810190601f168015620000fb5780820380516001836020036101000a031916815260200191505b50838103825284518152845160209182019186019080838360005b838110156200013057818101518382015260200162000116565b50505050905090810190601f1680156200015e5780820380516001836020036101000a031916815260200191505b5060408051601f198184030181529190526020810180516001600160e01b03908116634b5c427760e01b179091529095506200019f169350505050565b5050565b80516a636f6e736f6c652e6c6f67602083016000808483855afa5050505050565b828054600181600116156101000203166002900490600052602060002090601f016020900481019282620001f8576000855562000243565b82601f106200021357805160ff191683800117855562000243565b8280016001018555821562000243579182015b828111156200024357825182559160200191906001019062000226565b506200025192915062000255565b5090565b5b8082111562000251576000815560010162000256565b600060208083850312156200027f578182fd5b82516001600160401b038082111562000296578384fd5b818501915085601f830112620002aa578384fd5b815181811115620002b757fe5b604051601f8201601f1916810185018381118282101715620002d557fe5b6040528181528382018501881015620002ec578586fd5b8592505b818310156200030f5783830185015181840186015291840191620002f0565b818311156200032057858583830101525b979650505050505050565b6106f3806200033b6000396000f3fe608060405234801561001057600080fd5b50600436106100415760003560e01c8063a413686214610046578063cfae32171461005b578063ef690cc014610079575b600080fd5b6100596100543660046105db565b610081565b005b610063610145565b6040516100709190610670565b60405180910390f35b6100636101db565b61012e6040518060600160405280602381526020016106c4602391396000805460408051602060026001851615610100026000190190941693909304601f810184900484028201840190925281815292918301828280156101235780601f106100f857610100808354040283529160200191610123565b820191906000526020600020905b81548152906001019060200180831161010657829003601f168201915b50505050508361038b565b805161014190600090602084019061053a565b5050565b60008054604080516020601f60026000196101006001881615020190951694909404938401819004810282018101909252828152606093909290918301828280156101d15780601f106101a6576101008083540402835291602001916101d1565b820191906000526020600020905b8154815290600101906020018083116101b457829003601f168201915b5050505050905090565b6000805460408051602060026001851615610100026000190190941693909304601f810184900484028201840190925281815292918301828280156102615780601f1061023657610100808354040283529160200191610261565b820191906000526020600020905b81548152906001019060200180831161024457829003601f168201915b505050505081565b6101418282604051602401808060200180602001838103835285818151815260200191508051906020019080838360005b838110156102b257818101518382015260200161029a565b50505050905090810190601f1680156102df5780820380516001836020036101000a031916815260200191505b50838103825284518152845160209182019186019080838360005b838110156103125781810151838201526020016102fa565b50505050905090810190601f16801561033f5780820380516001836020036101000a031916815260200191505b5060408051601f198184030181529190526020810180517bffffffffffffffffffffffffffffffffffffffffffffffffffffffff16634b5c427760e01b17905294506105199350505050565b61051483838360405160240180806020018060200180602001848103845287818151815260200191508051906020019080838360005b838110156103d95781810151838201526020016103c1565b50505050905090810190601f1680156104065780820380516001836020036101000a031916815260200191505b50848103835286518152865160209182019188019080838360005b83811015610439578181015183820152602001610421565b50505050905090810190601f1680156104665780820380516001836020036101000a031916815260200191505b50848103825285518152855160209182019187019080838360005b83811015610499578181015183820152602001610481565b50505050905090810190601f1680156104c65780820380516001836020036101000a031916815260200191505b5060408051601f198184030181529190526020810180517bffffffffffffffffffffffffffffffffffffffffffffffffffffffff16632ced7cef60e01b179052965061051995505050505050565b505050565b80516a636f6e736f6c652e6c6f67602083016000808483855afa5050505050565b828054600181600116156101000203166002900490600052602060002090601f01602090048101928261057057600085556105b6565b82601f1061058957805160ff19168380011785556105b6565b828001600101855582156105b6579182015b828111156105b657825182559160200191906001019061059b565b506105c29291506105c6565b5090565b5b808211156105c257600081556001016105c7565b600060208083850312156105ed578182fd5b823567ffffffffffffffff80821115610604578384fd5b818501915085601f830112610617578384fd5b81358181111561062357fe5b604051601f8201601f191681018501838111828210171561064057fe5b6040528181528382018501881015610656578586fd5b818585018683013790810190930193909352509392505050565b6000602080835283518082850152825b8181101561069c57858101830151858201604001528201610680565b818111156106ad5783604083870101525b50601f01601f191692909201604001939250505056fe4368616e67696e67206772656574696e672066726f6d202725732720746f2027257327a164736f6c6343000706000a4465706c6f79696e67206120477265657465722077697468206772656574696e673a",
  "linkReferences": {},
  "deployedLinkReferences": {}
}