{
  "_format": "hh-sol-artifact-1",
  "contractName": "Ribon",
  "sourceName": "contracts/Ribon.sol",
  "abi": [
    {
      "inputs": [
        {
          "internalType": "address",
          "name": "_donationToken",
          "type": "address"
        },
        {
          "internalType": "address",
          "name": "_integrationCouncil",
          "type": "address"
        },
        {
          "internalType": "address",
          "name": "_nonProfitCouncil",
          "type": "address"
        }
      ],
      "stateMutability": "nonpayable",
      "type": "constructor"
    },
    {
      "anonymous": false,
      "inputs": [
        {
          "indexed": false,
          "internalType": "address",
          "name": "user",
          "type": "address"
        },
        {
          "indexed": false,
          "internalType": "address",
          "name": "integration",
          "type": "address"
        },
        {
          "indexed": false,
          "internalType": "address",
          "name": "nonProfit",
          "type": "address"
        },
        {
          "indexed": false,
          "internalType": "uint256",
          "name": "amount",
          "type": "uint256"
        }
      ],
      "name": "DonationAdded",
      "type": "event"
    },
    {
      "anonymous": false,
      "inputs": [
        {
          "indexed": false,
          "internalType": "address",
          "name": "integration",
          "type": "address"
        },
        {
          "indexed": false,
          "internalType": "uint256",
          "name": "amount",
          "type": "uint256"
        }
      ],
      "name": "IntegrationBalanceUpdated",
      "type": "event"
    },
    {
      "anonymous": false,
      "inputs": [
        {
          "indexed": false,
          "internalType": "address",
          "name": "nonProfit",
          "type": "address"
        }
      ],
      "name": "NonProfitAdded",
      "type": "event"
    },
    {
      "anonymous": false,
      "inputs": [
        {
          "indexed": false,
          "internalType": "address",
          "name": "nonProfit",
          "type": "address"
        }
      ],
      "name": "NonProfitRemoved",
      "type": "event"
    },
    {
      "anonymous": false,
      "inputs": [
        {
          "indexed": false,
          "internalType": "address",
          "name": "promoter",
          "type": "address"
        },
        {
          "indexed": false,
          "internalType": "uint256",
          "name": "amount",
          "type": "uint256"
        }
      ],
      "name": "PoolBalanceIncreased",
      "type": "event"
    },
    {
      "inputs": [
        {
          "internalType": "uint256",
          "name": "_amount",
          "type": "uint256"
        }
      ],
      "name": "addDonationPoolBalance",
      "outputs": [],
      "stateMutability": "payable",
      "type": "function"
    },
    {
      "inputs": [
        {
          "internalType": "address",
          "name": "_nonProfit",
          "type": "address"
        }
      ],
      "name": "addNonProfitToWhitelist",
      "outputs": [],
      "stateMutability": "nonpayable",
      "type": "function"
    },
    {
      "inputs": [
        {
          "internalType": "address",
          "name": "_nonProfit",
          "type": "address"
        },
        {
          "internalType": "address",
          "name": "_user",
          "type": "address"
        },
        {
          "internalType": "uint256",
          "name": "_amount",
          "type": "uint256"
        }
      ],
      "name": "donateThroughIntegration",
      "outputs": [],
      "stateMutability": "payable",
      "type": "function"
    },
    {
      "inputs": [],
      "name": "donationPoolBalance",
      "outputs": [
        {
          "internalType": "uint256",
          "name": "",
          "type": "uint256"
        }
      ],
      "stateMutability": "view",
      "type": "function"
    },
    {
      "inputs": [],
      "name": "donationToken",
      "outputs": [
        {
          "internalType": "contract IERC20",
          "name": "",
          "type": "address"
        }
      ],
      "stateMutability": "view",
      "type": "function"
    },
    {
      "inputs": [
        {
          "internalType": "address",
          "name": "_integration",
          "type": "address"
        }
      ],
      "name": "getIntegrationBalance",
      "outputs": [
        {
          "internalType": "uint256",
          "name": "",
          "type": "uint256"
        }
      ],
      "stateMutability": "view",
      "type": "function"
    },
    {
      "inputs": [],
      "name": "getIntegrationCouncil",
      "outputs": [
        {
          "internalType": "address",
          "name": "",
          "type": "address"
        }
      ],
      "stateMutability": "view",
      "type": "function"
    },
    {
      "inputs": [],
      "name": "integrationCouncil",
      "outputs": [
        {
          "internalType": "address",
          "name": "",
          "type": "address"
        }
      ],
      "stateMutability": "view",
      "type": "function"
    },
    {
      "inputs": [
        {
          "internalType": "address",
          "name": "",
          "type": "address"
        }
      ],
      "name": "integrations",
      "outputs": [
        {
          "internalType": "uint256",
          "name": "",
          "type": "uint256"
        }
      ],
      "stateMutability": "view",
      "type": "function"
    },
    {
      "inputs": [
        {
          "internalType": "address",
          "name": "_nonProfit",
          "type": "address"
        }
      ],
      "name": "isNonProfitOnWhitelist",
      "outputs": [
        {
          "internalType": "bool",
          "name": "",
          "type": "bool"
        }
      ],
      "stateMutability": "view",
      "type": "function"
    },
    {
      "inputs": [],
      "name": "nonProfitCouncil",
      "outputs": [
        {
          "internalType": "address",
          "name": "",
          "type": "address"
        }
      ],
      "stateMutability": "view",
      "type": "function"
    },
    {
      "inputs": [
        {
          "internalType": "address",
          "name": "",
          "type": "address"
        }
      ],
      "name": "nonProfits",
      "outputs": [
        {
          "internalType": "bool",
          "name": "",
          "type": "bool"
        }
      ],
      "stateMutability": "view",
      "type": "function"
    },
    {
      "inputs": [
        {
          "internalType": "address",
          "name": "_nonProfit",
          "type": "address"
        }
      ],
      "name": "removeNonProfitFromWhitelist",
      "outputs": [],
      "stateMutability": "nonpayable",
      "type": "function"
    },
    {
      "inputs": [
        {
          "internalType": "address",
          "name": "_integration",
          "type": "address"
        },
        {
          "internalType": "uint256",
          "name": "_amount",
          "type": "uint256"
        }
      ],
      "name": "updateIntegrationBalance",
      "outputs": [],
      "stateMutability": "nonpayable",
      "type": "function"
    }
  ],
  "bytecode": "0x60806040523480156200001157600080fd5b5060405162001b3038038062001b3083398181016040528101906200003791906200016c565b826000806101000a81548173ffffffffffffffffffffffffffffffffffffffff021916908373ffffffffffffffffffffffffffffffffffffffff16021790555081600160006101000a81548173ffffffffffffffffffffffffffffffffffffffff021916908373ffffffffffffffffffffffffffffffffffffffff16021790555080600260006101000a81548173ffffffffffffffffffffffffffffffffffffffff021916908373ffffffffffffffffffffffffffffffffffffffff160217905550505050620001c8565b600080fd5b600073ffffffffffffffffffffffffffffffffffffffff82169050919050565b6000620001348262000107565b9050919050565b620001468162000127565b81146200015257600080fd5b50565b60008151905062000166816200013b565b92915050565b60008060006060848603121562000188576200018762000102565b5b6000620001988682870162000155565b9350506020620001ab8682870162000155565b9250506040620001be8682870162000155565b9150509250925092565b61195880620001d86000396000f3fe6080604052600436106100dd5760003560e01c80636104647c1161007f57806389086b7a1161005957806389086b7a146102c05780638d4af16e146102fd578063a52c4b5c14610319578063deb6347614610344576100dd565b80636104647c1461021b57806373da40c7146102585780637aea595614610283576100dd565b80631777b23b116100bb5780631777b23b14610175578063232f94241461019e5780632e11f00a146101c957806350237c89146101f2576100dd565b806305e64794146100e25780630df721591461011f578063132fdb0b1461014a575b600080fd5b3480156100ee57600080fd5b5061010960048036038101906101049190610f7b565b610360565b6040516101169190610fc1565b60405180910390f35b34801561012b57600080fd5b50610134610378565b604051610141919061103b565b60405180910390f35b34801561015657600080fd5b5061015f61039c565b60405161016c9190611065565b60405180910390f35b34801561018157600080fd5b5061019c600480360381019061019791906110ac565b6103c2565b005b3480156101aa57600080fd5b506101b361053d565b6040516101c09190611065565b60405180910390f35b3480156101d557600080fd5b506101f060048036038101906101eb9190610f7b565b610567565b005b3480156101fe57600080fd5b5061021960048036038101906102149190610f7b565b610689565b005b34801561022757600080fd5b50610242600480360381019061023d9190610f7b565b6107ab565b60405161024f9190610fc1565b60405180910390f35b34801561026457600080fd5b5061026d6107f4565b60405161027a9190611065565b60405180910390f35b34801561028f57600080fd5b506102aa60048036038101906102a59190610f7b565b61081a565b6040516102b79190611107565b60405180910390f35b3480156102cc57600080fd5b506102e760048036038101906102e29190610f7b565b61083a565b6040516102f49190611107565b60405180910390f35b61031760048036038101906103129190611122565b610890565b005b34801561032557600080fd5b5061032e610aca565b60405161033b9190610fc1565b60405180910390f35b61035e60048036038101906103599190611175565b610ad0565b005b60056020528060005260406000206000915090505481565b60008054906101000a900473ffffffffffffffffffffffffffffffffffffffff1681565b600160009054906101000a900473ffffffffffffffffffffffffffffffffffffffff1681565b60008160035403101561040a576040517f08c379a000000000000000000000000000000000000000000000000000000000815260040161040190611225565b60405180910390fd5b600160009054906101000a900473ffffffffffffffffffffffffffffffffffffffff1673ffffffffffffffffffffffffffffffffffffffff163373ffffffffffffffffffffffffffffffffffffffff161461049a576040517f08c379a0000000000000000000000000000000000000000000000000000000008152600401610491906112b7565b60405180910390fd5b8060036000828254039250508190555080600560008473ffffffffffffffffffffffffffffffffffffffff1673ffffffffffffffffffffffffffffffffffffffff16815260200190815260200160002060008282546104f99190611306565b925050819055507fefe12cc55efb7b747cf4751dd33ab7476c5a72c16410ce32d665698184cca662828260405161053192919061135c565b60405180910390a15050565b6000600160009054906101000a900473ffffffffffffffffffffffffffffffffffffffff16905090565b600260009054906101000a900473ffffffffffffffffffffffffffffffffffffffff1673ffffffffffffffffffffffffffffffffffffffff163373ffffffffffffffffffffffffffffffffffffffff16146105f7576040517f08c379a00000000000000000000000000000000000000000000000000000000081526004016105ee906113d1565b60405180910390fd5b6001600460008373ffffffffffffffffffffffffffffffffffffffff1673ffffffffffffffffffffffffffffffffffffffff16815260200190815260200160002060006101000a81548160ff0219169083151502179055507f48cd054a0d5f7a715ef556531456f832fa4713887fd9619b1994499164bfdb348160405161067e9190611065565b60405180910390a150565b600260009054906101000a900473ffffffffffffffffffffffffffffffffffffffff1673ffffffffffffffffffffffffffffffffffffffff163373ffffffffffffffffffffffffffffffffffffffff1614610719576040517f08c379a0000000000000000000000000000000000000000000000000000000008152600401610710906113d1565b60405180910390fd5b6000600460008373ffffffffffffffffffffffffffffffffffffffff1673ffffffffffffffffffffffffffffffffffffffff16815260200190815260200160002060006101000a81548160ff0219169083151502179055507ff4c0882c02504b57aef9b59434f24674dca5b42da5bc5a3da8782b4ec472f264816040516107a09190611065565b60405180910390a150565b6000600560008373ffffffffffffffffffffffffffffffffffffffff1673ffffffffffffffffffffffffffffffffffffffff168152602001908152602001600020549050919050565b600260009054906101000a900473ffffffffffffffffffffffffffffffffffffffff1681565b60046020528060005260406000206000915054906101000a900460ff1681565b6000600460008373ffffffffffffffffffffffffffffffffffffffff1673ffffffffffffffffffffffffffffffffffffffff16815260200190815260200160002060009054906101000a900460ff169050919050565b60011515600460008573ffffffffffffffffffffffffffffffffffffffff1673ffffffffffffffffffffffffffffffffffffffff16815260200190815260200160002060009054906101000a900460ff16151514610923576040517f08c379a000000000000000000000000000000000000000000000000000000000815260040161091a90611463565b60405180910390fd5b80600560003373ffffffffffffffffffffffffffffffffffffffff1673ffffffffffffffffffffffffffffffffffffffff16815260200190815260200160002054116109a4576040517f08c379a000000000000000000000000000000000000000000000000000000000815260040161099b906114f5565b60405180910390fd5b600081116109e7576040517f08c379a00000000000000000000000000000000000000000000000000000000081526004016109de90611561565b60405180910390fd5b80600560003373ffffffffffffffffffffffffffffffffffffffff1673ffffffffffffffffffffffffffffffffffffffff1681526020019081526020016000206000828254610a369190611581565b92505081905550610a88838260008054906101000a900473ffffffffffffffffffffffffffffffffffffffff1673ffffffffffffffffffffffffffffffffffffffff16610b9c9092919063ffffffff16565b7ff89a6207d313cc5256f966d858765cbb91f98e89b9939b6964e9e24830c475fc82338584604051610abd94939291906115b5565b60405180910390a1505050565b60035481565b60008111610b13576040517f08c379a0000000000000000000000000000000000000000000000000000000008152600401610b0a90611561565b60405180910390fd5b610b6033308360008054906101000a900473ffffffffffffffffffffffffffffffffffffffff1673ffffffffffffffffffffffffffffffffffffffff16610c22909392919063ffffffff16565b7fd9795098f5c916aaded6e20f0dbcc3e7a312fcf25e5404964b94f203b20e445c3382604051610b9192919061135c565b60405180910390a150565b610c1d8363a9059cbb60e01b8484604051602401610bbb92919061135c565b604051602081830303815290604052907bffffffffffffffffffffffffffffffffffffffffffffffffffffffff19166020820180517bffffffffffffffffffffffffffffffffffffffffffffffffffffffff8381831617835250505050610cab565b505050565b610ca5846323b872dd60e01b858585604051602401610c43939291906115fa565b604051602081830303815290604052907bffffffffffffffffffffffffffffffffffffffffffffffffffffffff19166020820180517bffffffffffffffffffffffffffffffffffffffffffffffffffffffff8381831617835250505050610cab565b50505050565b6000610d0d826040518060400160405280602081526020017f5361666545524332303a206c6f772d6c6576656c2063616c6c206661696c65648152508573ffffffffffffffffffffffffffffffffffffffff16610d729092919063ffffffff16565b9050600081511115610d6d5780806020019051810190610d2d919061165d565b610d6c576040517f08c379a0000000000000000000000000000000000000000000000000000000008152600401610d63906116fc565b60405180910390fd5b5b505050565b6060610d818484600085610d8a565b90509392505050565b606082471015610dcf576040517f08c379a0000000000000000000000000000000000000000000000000000000008152600401610dc69061178e565b60405180910390fd5b610dd885610e9e565b610e17576040517f08c379a0000000000000000000000000000000000000000000000000000000008152600401610e0e906117fa565b60405180910390fd5b6000808673ffffffffffffffffffffffffffffffffffffffff168587604051610e409190611894565b60006040518083038185875af1925050503d8060008114610e7d576040519150601f19603f3d011682016040523d82523d6000602084013e610e82565b606091505b5091509150610e92828286610eb1565b92505050949350505050565b600080823b905060008111915050919050565b60608315610ec157829050610f11565b600083511115610ed45782518084602001fd5b816040517f08c379a0000000000000000000000000000000000000000000000000000000008152600401610f089190611900565b60405180910390fd5b9392505050565b600080fd5b600073ffffffffffffffffffffffffffffffffffffffff82169050919050565b6000610f4882610f1d565b9050919050565b610f5881610f3d565b8114610f6357600080fd5b50565b600081359050610f7581610f4f565b92915050565b600060208284031215610f9157610f90610f18565b5b6000610f9f84828501610f66565b91505092915050565b6000819050919050565b610fbb81610fa8565b82525050565b6000602082019050610fd66000830184610fb2565b92915050565b6000819050919050565b6000611001610ffc610ff784610f1d565b610fdc565b610f1d565b9050919050565b600061101382610fe6565b9050919050565b600061102582611008565b9050919050565b6110358161101a565b82525050565b6000602082019050611050600083018461102c565b92915050565b61105f81610f3d565b82525050565b600060208201905061107a6000830184611056565b92915050565b61108981610fa8565b811461109457600080fd5b50565b6000813590506110a681611080565b92915050565b600080604083850312156110c3576110c2610f18565b5b60006110d185828601610f66565b92505060206110e285828601611097565b9150509250929050565b60008115159050919050565b611101816110ec565b82525050565b600060208201905061111c60008301846110f8565b92915050565b60008060006060848603121561113b5761113a610f18565b5b600061114986828701610f66565b935050602061115a86828701610f66565b925050604061116b86828701611097565b9150509250925092565b60006020828403121561118b5761118a610f18565b5b600061119984828501611097565b91505092915050565b600082825260208201905092915050565b7f446f6e6174696f6e20706f6f6c2062616c616e63652073686f756c642062652060008201527f626967676572207468616e203000000000000000000000000000000000000000602082015250565b600061120f602d836111a2565b915061121a826111b3565b604082019050919050565b6000602082019050818103600083015261123e81611202565b9050919050565b7f596f7520617265206e6f74206f6e2074686520696e746567726174696f6e206360008201527f6f756e63696c2e00000000000000000000000000000000000000000000000000602082015250565b60006112a16027836111a2565b91506112ac82611245565b604082019050919050565b600060208201905081810360008301526112d081611294565b9050919050565b7f4e487b7100000000000000000000000000000000000000000000000000000000600052601160045260246000fd5b600061131182610fa8565b915061131c83610fa8565b9250827fffffffffffffffffffffffffffffffffffffffffffffffffffffffffffffffff03821115611351576113506112d7565b5b828201905092915050565b60006040820190506113716000830185611056565b61137e6020830184610fb2565b9392505050565b7f596f7520617265206e6f74206e6f6e2070726f66697420636f756e63696c2e00600082015250565b60006113bb601f836111a2565b91506113c682611385565b602082019050919050565b600060208201905081810360008301526113ea816113ae565b9050919050565b7f44657374696e6174696f6e206973206e6f74206f6e206e6f6e2070726f66697460008201527f2077686974656c69737400000000000000000000000000000000000000000000602082015250565b600061144d602a836111a2565b9150611458826113f1565b604082019050919050565b6000602082019050818103600083015261147c81611440565b9050919050565b7f496e746567726174696f6e2062616c616e63652073686f756c6420626520626960008201527f67676572207468616e20616d6f756e7400000000000000000000000000000000602082015250565b60006114df6030836111a2565b91506114ea82611483565b604082019050919050565b6000602082019050818103600083015261150e816114d2565b9050919050565b7f416d6f756e742073686f756c6420626520626967676572207468616e20300000600082015250565b600061154b601e836111a2565b915061155682611515565b602082019050919050565b6000602082019050818103600083015261157a8161153e565b9050919050565b600061158c82610fa8565b915061159783610fa8565b9250828210156115aa576115a96112d7565b5b828203905092915050565b60006080820190506115ca6000830187611056565b6115d76020830186611056565b6115e46040830185611056565b6115f16060830184610fb2565b95945050505050565b600060608201905061160f6000830186611056565b61161c6020830185611056565b6116296040830184610fb2565b949350505050565b61163a816110ec565b811461164557600080fd5b50565b60008151905061165781611631565b92915050565b60006020828403121561167357611672610f18565b5b600061168184828501611648565b91505092915050565b7f5361666545524332303a204552433230206f7065726174696f6e20646964206e60008201527f6f74207375636365656400000000000000000000000000000000000000000000602082015250565b60006116e6602a836111a2565b91506116f18261168a565b604082019050919050565b60006020820190508181036000830152611715816116d9565b9050919050565b7f416464726573733a20696e73756666696369656e742062616c616e636520666f60008201527f722063616c6c0000000000000000000000000000000000000000000000000000602082015250565b60006117786026836111a2565b91506117838261171c565b604082019050919050565b600060208201905081810360008301526117a78161176b565b9050919050565b7f416464726573733a2063616c6c20746f206e6f6e2d636f6e7472616374000000600082015250565b60006117e4601d836111a2565b91506117ef826117ae565b602082019050919050565b60006020820190508181036000830152611813816117d7565b9050919050565b600081519050919050565b600081905092915050565b60005b8381101561184e578082015181840152602081019050611833565b8381111561185d576000848401525b50505050565b600061186e8261181a565b6118788185611825565b9350611888818560208601611830565b80840191505092915050565b60006118a08284611863565b915081905092915050565b600081519050919050565b6000601f19601f8301169050919050565b60006118d2826118ab565b6118dc81856111a2565b93506118ec818560208601611830565b6118f5816118b6565b840191505092915050565b6000602082019050818103600083015261191a81846118c7565b90509291505056fea2646970667358221220e126a396bcb627afb8468678de1f5d64f14d03ecc43583fea9578149afa61c2664736f6c634300080b0033",
  "linkReferences": {},
  "deployedLinkReferences": {}
}