{
  "_format": "hh-sol-artifact-1",
  "contractName": "Ribon",
  "sourceName": "contracts/Ribon.sol",
  "abi": [
    {
      "inputs": [
        {
          "internalType": "address",
          "name": "_donationToken",
          "type": "address"
        },
        {
          "internalType": "address",
          "name": "_integrationCouncil",
          "type": "address"
        },
        {
          "internalType": "address",
          "name": "_nonProfitCouncil",
          "type": "address"
        }
      ],
      "stateMutability": "nonpayable",
      "type": "constructor"
    },
    {
      "anonymous": false,
      "inputs": [
        {
          "indexed": false,
          "internalType": "address",
          "name": "user",
          "type": "address"
        },
        {
          "indexed": false,
          "internalType": "address",
          "name": "integration",
          "type": "address"
        },
        {
          "indexed": false,
          "internalType": "address",
          "name": "nonProfit",
          "type": "address"
        },
        {
          "indexed": false,
          "internalType": "uint256",
          "name": "amount",
          "type": "uint256"
        }
      ],
      "name": "DonationAdded",
      "type": "event"
    },
    {
      "anonymous": false,
      "inputs": [
        {
          "indexed": false,
          "internalType": "address",
          "name": "integration",
          "type": "address"
        },
        {
          "indexed": false,
          "internalType": "uint256",
          "name": "mount",
          "type": "uint256"
        }
      ],
      "name": "IntegrationBalanceUpdated",
      "type": "event"
    },
    {
      "anonymous": false,
      "inputs": [
        {
          "indexed": false,
          "internalType": "address",
          "name": "nonProfit",
          "type": "address"
        }
      ],
      "name": "NonProfitAdded",
      "type": "event"
    },
    {
      "anonymous": false,
      "inputs": [
        {
          "indexed": false,
          "internalType": "address",
          "name": "nonProfit",
          "type": "address"
        }
      ],
      "name": "NonProfitRemoved",
      "type": "event"
    },
    {
      "anonymous": false,
      "inputs": [
        {
          "indexed": false,
          "internalType": "address",
          "name": "promoter",
          "type": "address"
        },
        {
          "indexed": false,
          "internalType": "uint256",
          "name": "amount",
          "type": "uint256"
        }
      ],
      "name": "PoolBalanceIncreased",
      "type": "event"
    },
    {
      "inputs": [
        {
          "internalType": "uint256",
          "name": "_amount",
          "type": "uint256"
        }
      ],
      "name": "addDonationPoolBalance",
      "outputs": [],
      "stateMutability": "payable",
      "type": "function"
    },
    {
      "inputs": [
        {
          "internalType": "address",
          "name": "_nonProfit",
          "type": "address"
        }
      ],
      "name": "addNonProfitToWhitelist",
      "outputs": [],
      "stateMutability": "nonpayable",
      "type": "function"
    },
    {
      "inputs": [
        {
          "internalType": "address",
          "name": "_nonProfit",
          "type": "address"
        },
        {
          "internalType": "address",
          "name": "_user",
          "type": "address"
        },
        {
          "internalType": "uint256",
          "name": "_amount",
          "type": "uint256"
        }
      ],
      "name": "donateThroughIntegration",
      "outputs": [],
      "stateMutability": "payable",
      "type": "function"
    },
    {
      "inputs": [],
      "name": "donationPoolBalance",
      "outputs": [
        {
          "internalType": "uint256",
          "name": "",
          "type": "uint256"
        }
      ],
      "stateMutability": "view",
      "type": "function"
    },
    {
      "inputs": [],
      "name": "donationToken",
      "outputs": [
        {
          "internalType": "contract IERC20",
          "name": "",
          "type": "address"
        }
      ],
      "stateMutability": "view",
      "type": "function"
    },
    {
      "inputs": [
        {
          "internalType": "address",
          "name": "_integration",
          "type": "address"
        }
      ],
      "name": "getIntegrationBalance",
      "outputs": [
        {
          "internalType": "uint256",
          "name": "",
          "type": "uint256"
        }
      ],
      "stateMutability": "view",
      "type": "function"
    },
    {
      "inputs": [],
      "name": "getIntegrationCouncil",
      "outputs": [
        {
          "internalType": "address",
          "name": "",
          "type": "address"
        }
      ],
      "stateMutability": "view",
      "type": "function"
    },
    {
      "inputs": [],
      "name": "integrationCouncil",
      "outputs": [
        {
          "internalType": "address",
          "name": "",
          "type": "address"
        }
      ],
      "stateMutability": "view",
      "type": "function"
    },
    {
      "inputs": [
        {
          "internalType": "address",
          "name": "",
          "type": "address"
        }
      ],
      "name": "integrations",
      "outputs": [
        {
          "internalType": "uint256",
          "name": "",
          "type": "uint256"
        }
      ],
      "stateMutability": "view",
      "type": "function"
    },
    {
      "inputs": [
        {
          "internalType": "address",
          "name": "_nonProfit",
          "type": "address"
        }
      ],
      "name": "isNonProfitOnWhitelist",
      "outputs": [
        {
          "internalType": "bool",
          "name": "",
          "type": "bool"
        }
      ],
      "stateMutability": "view",
      "type": "function"
    },
    {
      "inputs": [],
      "name": "nonProfitCouncil",
      "outputs": [
        {
          "internalType": "address",
          "name": "",
          "type": "address"
        }
      ],
      "stateMutability": "view",
      "type": "function"
    },
    {
      "inputs": [
        {
          "internalType": "address",
          "name": "",
          "type": "address"
        }
      ],
      "name": "nonProfits",
      "outputs": [
        {
          "internalType": "bool",
          "name": "",
          "type": "bool"
        }
      ],
      "stateMutability": "view",
      "type": "function"
    },
    {
      "inputs": [
        {
          "internalType": "address",
          "name": "_nonProfit",
          "type": "address"
        }
      ],
      "name": "removeNonProfitFromWhitelist",
      "outputs": [],
      "stateMutability": "nonpayable",
      "type": "function"
    },
    {
      "inputs": [
        {
          "internalType": "address",
          "name": "_integration",
          "type": "address"
        },
        {
          "internalType": "uint256",
          "name": "_amount",
          "type": "uint256"
        }
      ],
      "name": "updateIntegrationBalance",
      "outputs": [],
      "stateMutability": "nonpayable",
      "type": "function"
    }
  ],
  "bytecode": "0x60806040523480156200001157600080fd5b50604051620019933803806200199383398181016040528101906200003791906200016c565b826000806101000a81548173ffffffffffffffffffffffffffffffffffffffff021916908373ffffffffffffffffffffffffffffffffffffffff16021790555081600160006101000a81548173ffffffffffffffffffffffffffffffffffffffff021916908373ffffffffffffffffffffffffffffffffffffffff16021790555080600260006101000a81548173ffffffffffffffffffffffffffffffffffffffff021916908373ffffffffffffffffffffffffffffffffffffffff160217905550505050620001c8565b600080fd5b600073ffffffffffffffffffffffffffffffffffffffff82169050919050565b6000620001348262000107565b9050919050565b620001468162000127565b81146200015257600080fd5b50565b60008151905062000166816200013b565b92915050565b60008060006060848603121562000188576200018762000102565b5b6000620001988682870162000155565b9350506020620001ab8682870162000155565b9250506040620001be8682870162000155565b9150509250925092565b6117bb80620001d86000396000f3fe6080604052600436106100dd5760003560e01c80636104647c1161007f57806389086b7a1161005957806389086b7a146102c05780638d4af16e146102fd578063a52c4b5c14610319578063deb6347614610344576100dd565b80636104647c1461021b57806373da40c7146102585780637aea595614610283576100dd565b80631777b23b116100bb5780631777b23b14610175578063232f94241461019e5780632e11f00a146101c957806350237c89146101f2576100dd565b806305e64794146100e25780630df721591461011f578063132fdb0b1461014a575b600080fd5b3480156100ee57600080fd5b5061010960048036038101906101049190610ea4565b610360565b6040516101169190610eea565b60405180910390f35b34801561012b57600080fd5b50610134610378565b6040516101419190610f64565b60405180910390f35b34801561015657600080fd5b5061015f61039c565b60405161016c9190610f8e565b60405180910390f35b34801561018157600080fd5b5061019c60048036038101906101979190610fd5565b6103c2565b005b3480156101aa57600080fd5b506101b361053d565b6040516101c09190610f8e565b60405180910390f35b3480156101d557600080fd5b506101f060048036038101906101eb9190610ea4565b610567565b005b3480156101fe57600080fd5b5061021960048036038101906102149190610ea4565b610689565b005b34801561022757600080fd5b50610242600480360381019061023d9190610ea4565b6107ab565b60405161024f9190610eea565b60405180910390f35b34801561026457600080fd5b5061026d6107f4565b60405161027a9190610f8e565b60405180910390f35b34801561028f57600080fd5b506102aa60048036038101906102a59190610ea4565b61081a565b6040516102b79190611030565b60405180910390f35b3480156102cc57600080fd5b506102e760048036038101906102e29190610ea4565b61083a565b6040516102f49190611030565b60405180910390f35b6103176004803603810190610312919061104b565b610890565b005b34801561032557600080fd5b5061032e6109f3565b60405161033b9190610eea565b60405180910390f35b61035e6004803603810190610359919061109e565b6109f9565b005b60056020528060005260406000206000915090505481565b60008054906101000a900473ffffffffffffffffffffffffffffffffffffffff1681565b600160009054906101000a900473ffffffffffffffffffffffffffffffffffffffff1681565b60008160035403101561040a576040517f08c379a00000000000000000000000000000000000000000000000000000000081526004016104019061114e565b60405180910390fd5b600160009054906101000a900473ffffffffffffffffffffffffffffffffffffffff1673ffffffffffffffffffffffffffffffffffffffff163373ffffffffffffffffffffffffffffffffffffffff161461049a576040517f08c379a0000000000000000000000000000000000000000000000000000000008152600401610491906111e0565b60405180910390fd5b8060036000828254039250508190555080600560008473ffffffffffffffffffffffffffffffffffffffff1673ffffffffffffffffffffffffffffffffffffffff16815260200190815260200160002060008282546104f9919061122f565b925050819055507fefe12cc55efb7b747cf4751dd33ab7476c5a72c16410ce32d665698184cca6628282604051610531929190611285565b60405180910390a15050565b6000600160009054906101000a900473ffffffffffffffffffffffffffffffffffffffff16905090565b600260009054906101000a900473ffffffffffffffffffffffffffffffffffffffff1673ffffffffffffffffffffffffffffffffffffffff163373ffffffffffffffffffffffffffffffffffffffff16146105f7576040517f08c379a00000000000000000000000000000000000000000000000000000000081526004016105ee906112fa565b60405180910390fd5b6001600460008373ffffffffffffffffffffffffffffffffffffffff1673ffffffffffffffffffffffffffffffffffffffff16815260200190815260200160002060006101000a81548160ff0219169083151502179055507f48cd054a0d5f7a715ef556531456f832fa4713887fd9619b1994499164bfdb348160405161067e9190610f8e565b60405180910390a150565b600260009054906101000a900473ffffffffffffffffffffffffffffffffffffffff1673ffffffffffffffffffffffffffffffffffffffff163373ffffffffffffffffffffffffffffffffffffffff1614610719576040517f08c379a0000000000000000000000000000000000000000000000000000000008152600401610710906112fa565b60405180910390fd5b6000600460008373ffffffffffffffffffffffffffffffffffffffff1673ffffffffffffffffffffffffffffffffffffffff16815260200190815260200160002060006101000a81548160ff0219169083151502179055507ff4c0882c02504b57aef9b59434f24674dca5b42da5bc5a3da8782b4ec472f264816040516107a09190610f8e565b60405180910390a150565b6000600560008373ffffffffffffffffffffffffffffffffffffffff1673ffffffffffffffffffffffffffffffffffffffff168152602001908152602001600020549050919050565b600260009054906101000a900473ffffffffffffffffffffffffffffffffffffffff1681565b60046020528060005260406000206000915054906101000a900460ff1681565b6000600460008373ffffffffffffffffffffffffffffffffffffffff1673ffffffffffffffffffffffffffffffffffffffff16815260200190815260200160002060009054906101000a900460ff169050919050565b60011515600460008573ffffffffffffffffffffffffffffffffffffffff1673ffffffffffffffffffffffffffffffffffffffff16815260200190815260200160002060009054906101000a900460ff16151514610923576040517f08c379a000000000000000000000000000000000000000000000000000000000815260040161091a9061138c565b60405180910390fd5b60008111610966576040517f08c379a000000000000000000000000000000000000000000000000000000000815260040161095d906113f8565b60405180910390fd5b6109b1838260008054906101000a900473ffffffffffffffffffffffffffffffffffffffff1673ffffffffffffffffffffffffffffffffffffffff16610ac59092919063ffffffff16565b7ff89a6207d313cc5256f966d858765cbb91f98e89b9939b6964e9e24830c475fc823385846040516109e69493929190611418565b60405180910390a1505050565b60035481565b60038111610a3c576040517f08c379a0000000000000000000000000000000000000000000000000000000008152600401610a33906113f8565b60405180910390fd5b610a8933308360008054906101000a900473ffffffffffffffffffffffffffffffffffffffff1673ffffffffffffffffffffffffffffffffffffffff16610b4b909392919063ffffffff16565b7fd9795098f5c916aaded6e20f0dbcc3e7a312fcf25e5404964b94f203b20e445c3382604051610aba929190611285565b60405180910390a150565b610b468363a9059cbb60e01b8484604051602401610ae4929190611285565b604051602081830303815290604052907bffffffffffffffffffffffffffffffffffffffffffffffffffffffff19166020820180517bffffffffffffffffffffffffffffffffffffffffffffffffffffffff8381831617835250505050610bd4565b505050565b610bce846323b872dd60e01b858585604051602401610b6c9392919061145d565b604051602081830303815290604052907bffffffffffffffffffffffffffffffffffffffffffffffffffffffff19166020820180517bffffffffffffffffffffffffffffffffffffffffffffffffffffffff8381831617835250505050610bd4565b50505050565b6000610c36826040518060400160405280602081526020017f5361666545524332303a206c6f772d6c6576656c2063616c6c206661696c65648152508573ffffffffffffffffffffffffffffffffffffffff16610c9b9092919063ffffffff16565b9050600081511115610c965780806020019051810190610c5691906114c0565b610c95576040517f08c379a0000000000000000000000000000000000000000000000000000000008152600401610c8c9061155f565b60405180910390fd5b5b505050565b6060610caa8484600085610cb3565b90509392505050565b606082471015610cf8576040517f08c379a0000000000000000000000000000000000000000000000000000000008152600401610cef906115f1565b60405180910390fd5b610d0185610dc7565b610d40576040517f08c379a0000000000000000000000000000000000000000000000000000000008152600401610d379061165d565b60405180910390fd5b6000808673ffffffffffffffffffffffffffffffffffffffff168587604051610d6991906116f7565b60006040518083038185875af1925050503d8060008114610da6576040519150601f19603f3d011682016040523d82523d6000602084013e610dab565b606091505b5091509150610dbb828286610dda565b92505050949350505050565b600080823b905060008111915050919050565b60608315610dea57829050610e3a565b600083511115610dfd5782518084602001fd5b816040517f08c379a0000000000000000000000000000000000000000000000000000000008152600401610e319190611763565b60405180910390fd5b9392505050565b600080fd5b600073ffffffffffffffffffffffffffffffffffffffff82169050919050565b6000610e7182610e46565b9050919050565b610e8181610e66565b8114610e8c57600080fd5b50565b600081359050610e9e81610e78565b92915050565b600060208284031215610eba57610eb9610e41565b5b6000610ec884828501610e8f565b91505092915050565b6000819050919050565b610ee481610ed1565b82525050565b6000602082019050610eff6000830184610edb565b92915050565b6000819050919050565b6000610f2a610f25610f2084610e46565b610f05565b610e46565b9050919050565b6000610f3c82610f0f565b9050919050565b6000610f4e82610f31565b9050919050565b610f5e81610f43565b82525050565b6000602082019050610f796000830184610f55565b92915050565b610f8881610e66565b82525050565b6000602082019050610fa36000830184610f7f565b92915050565b610fb281610ed1565b8114610fbd57600080fd5b50565b600081359050610fcf81610fa9565b92915050565b60008060408385031215610fec57610feb610e41565b5b6000610ffa85828601610e8f565b925050602061100b85828601610fc0565b9150509250929050565b60008115159050919050565b61102a81611015565b82525050565b60006020820190506110456000830184611021565b92915050565b60008060006060848603121561106457611063610e41565b5b600061107286828701610e8f565b935050602061108386828701610e8f565b925050604061109486828701610fc0565b9150509250925092565b6000602082840312156110b4576110b3610e41565b5b60006110c284828501610fc0565b91505092915050565b600082825260208201905092915050565b7f446f6e6174696f6e20706f6f6c2062616c616e63652073686f756c642062652060008201527f626967676572207468616e203000000000000000000000000000000000000000602082015250565b6000611138602d836110cb565b9150611143826110dc565b604082019050919050565b600060208201905081810360008301526111678161112b565b9050919050565b7f596f7520617265206e6f74206f6e2074686520696e746567726174696f6e206360008201527f6f756e63696c2e00000000000000000000000000000000000000000000000000602082015250565b60006111ca6027836110cb565b91506111d58261116e565b604082019050919050565b600060208201905081810360008301526111f9816111bd565b9050919050565b7f4e487b7100000000000000000000000000000000000000000000000000000000600052601160045260246000fd5b600061123a82610ed1565b915061124583610ed1565b9250827fffffffffffffffffffffffffffffffffffffffffffffffffffffffffffffffff0382111561127a57611279611200565b5b828201905092915050565b600060408201905061129a6000830185610f7f565b6112a76020830184610edb565b9392505050565b7f596f7520617265206e6f74206e6f6e2070726f66697420636f756e63696c2e00600082015250565b60006112e4601f836110cb565b91506112ef826112ae565b602082019050919050565b60006020820190508181036000830152611313816112d7565b9050919050565b7f44657374696e6174696f6e206973206e6f74206f6e206e6f6e2070726f66697460008201527f2077686974656c69737400000000000000000000000000000000000000000000602082015250565b6000611376602a836110cb565b91506113818261131a565b604082019050919050565b600060208201905081810360008301526113a581611369565b9050919050565b7f416d6f756e742073686f756c6420626520626967676572207468616e20300000600082015250565b60006113e2601e836110cb565b91506113ed826113ac565b602082019050919050565b60006020820190508181036000830152611411816113d5565b9050919050565b600060808201905061142d6000830187610f7f565b61143a6020830186610f7f565b6114476040830185610f7f565b6114546060830184610edb565b95945050505050565b60006060820190506114726000830186610f7f565b61147f6020830185610f7f565b61148c6040830184610edb565b949350505050565b61149d81611015565b81146114a857600080fd5b50565b6000815190506114ba81611494565b92915050565b6000602082840312156114d6576114d5610e41565b5b60006114e4848285016114ab565b91505092915050565b7f5361666545524332303a204552433230206f7065726174696f6e20646964206e60008201527f6f74207375636365656400000000000000000000000000000000000000000000602082015250565b6000611549602a836110cb565b9150611554826114ed565b604082019050919050565b600060208201905081810360008301526115788161153c565b9050919050565b7f416464726573733a20696e73756666696369656e742062616c616e636520666f60008201527f722063616c6c0000000000000000000000000000000000000000000000000000602082015250565b60006115db6026836110cb565b91506115e68261157f565b604082019050919050565b6000602082019050818103600083015261160a816115ce565b9050919050565b7f416464726573733a2063616c6c20746f206e6f6e2d636f6e7472616374000000600082015250565b6000611647601d836110cb565b915061165282611611565b602082019050919050565b600060208201905081810360008301526116768161163a565b9050919050565b600081519050919050565b600081905092915050565b60005b838110156116b1578082015181840152602081019050611696565b838111156116c0576000848401525b50505050565b60006116d18261167d565b6116db8185611688565b93506116eb818560208601611693565b80840191505092915050565b600061170382846116c6565b915081905092915050565b600081519050919050565b6000601f19601f8301169050919050565b60006117358261170e565b61173f81856110cb565b935061174f818560208601611693565b61175881611719565b840191505092915050565b6000602082019050818103600083015261177d818461172a565b90509291505056fea264697066735822122074f2e55aeabc79cd13802533cc236f07ef944996cdb75c2e37438de4b65cace264736f6c634300080b0033",
  "linkReferences": {},
  "deployedLinkReferences": {}
}